:020000040100F9
:100000003741000213010100B70100029381010092
:10001000B71500019385058D371600011306068D6F
:10002000B70600029386060039A083A2050023A02C
:10003000560091059106E3EAC5FEB70500029385D7
:100040000500370600021306061421A023A00500B0
:100050009105E3EDC5FEB7000001E7804007B7005A
:100060000001E7804007B7000001E780C07F730010
:100070005010F5BF8280000000000000000000006A
:100080000000000000000000000000000000000070
:100090000000000000000000000000000000000060
:1000A0000000000000000000000000000000000050
:1000B0000000000000000000000000000000000040
:1000C0006F004000197106C20AC40EC612C816CAD3
:1000D0001ACC1ECE22D026D22AD42ED632D836DA48
:1000E0003ADC3EDEC2C0C6C2CAC4CEC6D2C8D6CA78
:1000F000DACCDECEE2D0E6D2EAD4EED6F2D8F6DA28
:10010000FADCFEDE970000009380000582909240AA
:100110002241B2414242D2426243F24302549254DB
:100120002255B2554256D2566257F2570648964863
:100130002649B649464AD64A664BF64B065C965C5B
:10014000265DB65D465ED65E665FF65F096173004A
:10015000203001A08280B70500020111938745007D
:1001600006CE2A8878001385870185460146938547
:10017000450023060100238A0701CD23F2400345F1
:10018000C100056182803705000213054500930513
:1001900005040147814601466105C9A3797122D44E
:1001A00026D237040002B70400024AD04ECE06D64B
:1001B000938944001304C40115497800854601461B
:1001C00093854400228523060100238A290179238F
:1001D0008347C100858BF5F3B250225492540259E3
:1001E000F24945618280370807008327C801797189
:1001F00006D622D426D24AD04ECE52CC93E707035D
:10020000232EF800232408002326080037090002C3
:100210001304490023280800232C04011548230A4D
:1002200004011948854793048401230A040513082F
:100230001003230604071CC83CC83CCC3CD43CD863
:100240002320F4082302F40878008546014693052C
:1002500049002685232004002304040023260400EB
:100260002320040423040404232604042300040696
:1002700023220406230C0406232E04062306010071
:10028000F1299307500378008546014693054900FC
:100290002685034AC100230AF400230601007D29B4
:1002A0008349C10001478146014693050404268520
:1002B00093E929006521A209336A3A017800894649
:1002C00001469305040726852316410195497921A6
:1002D0003800854601469305490026852304010020
:1002E000230A3401A52983478100858BF5F3380063
:1002F00093054900268585460146230A34012304D7
:100300000100A92938009305490026859307500369
:1003100085460146230AF4002304010081210D4390
:100320009389440D8948230C6408230A640A2D53D9
:10033000914705491308B006CE8526853800232C41
:10034000140B2300640C2320140F1303B003930831
:10035000B0FB85460146232AF4082324F40A230629
:10036000040B232EF40A2328F40C230A640C232202
:10037000F40E2304140F232EF40E23000411230083
:10038000240B2322240B2304240D2326240D230EC7
:10039000240D230A240F232C240F230604082328CA
:1003A000040823240408232E04082328040A2322F3
:1003B000040C232C040C2326040E23040100792EA4
:1003C0003800CE85268585460546492E3800CE85DF
:1003D000268585460946592638002685CE858546D8
:1003E0000D46AD2E8325040B0326440B8326840B78
:1003F0000327C40B8327040C37080090232604111D
:100400001385C40E37080700232424112322041166
:100410002328B410232AC410232CD410232EE41034
:100420002320F412E12CB250225492540259F24982
:10043000624A45618280944137470800930707402C
:100440008A06898294C16300F510B7570800938724
:1004500007806306F500630FE50C054582803713BE
:100460000500930E03C2130EC3C1130383C10147DA
:10047000854F0D4F9142CDCA931317003398EF006B
:10048000B3177F0033F6060193C7F7FF51CA411136
:1004900022C6C04103260300937834007D8EB398B2
:1004A0007800336616012320C3006308540619E060
:1004B0002324050103260E0083A8C50003A8850098
:1004C0007D8EB3987800336616012320CE0083A872
:1004D0000E0033167800B3F71701D18F23A0FE006A
:1004E0000507B3D7E640B9C3931317003398EF005D
:1004F000B3177F0033F6060193C7F7FF75D2C041EB
:1005000003260300937834007D8EB3987800336619
:1005100016012320C300E31C54F82326050159BF0C
:100520000507B3D7E640A9FB014582803244014567
:100530004101828037130500930E83C0130E43C020
:10054000130303C02DB737130500930E43C1130ED9
:1005500003C11303C3C021BF1C41139525000981AA
:100560007D8D3335A000828019E24CC182800CC1A0
:1005700082801C49BD8D0CC98280135745009D4760
:1005800063EFE708B707000283A8070013182700E6
:10059000BD46B396060113C6F6FF3376160123A0B7
:1005A000C70003A6070033150501758D518D23A0E3
:1005B000A70083A60700B757080013F6150023A26B
:1005C000D7C0938607C08547B397E7000DE69CD256
:1005D00013F725000DC737570800232AF7C0918964
:1005E000375708008DC52322F7C237570800014549
:1005F0002326F7C08280DCCE13F7250069FF37572A
:100600000800232CF7C0918937570800E9FD2324FF
:10061000F7C23757080001452326F7C082800545F9
:10062000828011819D4763E2A7048546B757080081
:10063000B396A60023A8D7C037060002832506007C
:100640000A053D473317A7001347F7FF6D8F232097
:10065000E60003270600014523A2E7C023ACD7C06C
:1006600023A0D7C223A4D7C2828005458280B75772
:10067000080003A787C09357450005453315F500CB
:10068000798D3335A0008280B757080003A707C0D3
:1006900011818547B397A700F98F33D5A7008280D2
:1006A000B75708001307F00F23A6E7C28280011195
:1006B00006CE22CC26CA4AC802C402C63759080050
:1006C000214737040080B7070500D8C78544930742
:1006D00034008A85130509803EC026C2A93B8A855D
:1006E0001304C4031305098022C026C226C4A13303
:1006F000F2406244D244424905618280411122C4E1
:1007000006C62A846D371840104454405C4F93E766
:1007100007015CCF10CB1C439DC6B7061000D58FD8
:100720001CC35C480C4C034604018346C401CE073D
:10073000D605CD8F4206B2402244D18FE206D58F36
:100740001CCF41018280B706F0FFFD16F58F1CC358
:10075000C9BFB7070700D84FD84FF5BF032805001A
:100760002324C80003C6850001C6DC412326F80007
:100770009C4983A8C50003A30500D60783C545018E
:10078000CE08B3E71701D58F9318F300B3E717012D
:10079000E205CD8F4206D18F2322F80063160302B3
:1007A00095CE834548010546930717002300B700FF
:1007B00036976385C6021441850783C64601A38F19
:1007C000D7FEE31AF7FE828011CB89CABA96834717
:1007D00007000507230AF800E39BE6FE82801C4120
:1007E000C84F058982801C414147D8CF82801C4177
:1007F000C84F118113451500058982800111B70783
:10080000000106CE9387070073905730856737073E
:10081000050089075CCFA1475CCB5447B71705009B
:1008200093E6860054C71307505523ACE7C013075F
:10083000005023A0E7C293060020B747080094C7E2
:100840001307004098C7D4C398C302C29247616798
:100850001307F7696348F700924785073EC292473E
:10086000E35CF7FEB74708001307002098C302C4F3
:10087000A24761671307F7696348F700A247850736
:100880003EC4A247E35CF7FEB747080013070040E9
:10089000D8C302C6B24761671307F7696348F70018
:1008A000B24785073EC6B247E35CF7FEB74708008C
:1008B0001307004098C393060020D4C7D8C7253239
:1008C000B7000080829001A000000000000000003E
:0400000501000000F6
:00000001FF
